{
  "contractName": "SkillCertification",
  "abi": [
    {
      "anonymous": false,
      "inputs": [
        {
          "indexed": true,
          "internalType": "address",
          "name": "user",
          "type": "address"
        },
        {
          "indexed": false,
          "internalType": "string",
          "name": "skillName",
          "type": "string"
        },
        {
          "indexed": false,
          "internalType": "string",
          "name": "hash",
          "type": "string"
        }
      ],
      "name": "SkillAdded",
      "type": "event"
    },
    {
      "anonymous": false,
      "inputs": [
        {
          "indexed": true,
          "internalType": "address",
          "name": "user",
          "type": "address"
        },
        {
          "indexed": false,
          "internalType": "string",
          "name": "skillName",
          "type": "string"
        },
        {
          "indexed": false,
          "internalType": "address",
          "name": "verifier",
          "type": "address"
        }
      ],
      "name": "SkillVerified",
      "type": "event"
    },
    {
      "inputs": [
        {
          "internalType": "string",
          "name": "_name",
          "type": "string"
        },
        {
          "internalType": "string",
          "name": "_desc",
          "type": "string"
        },
        {
          "internalType": "string",
          "name": "_hash",
          "type": "string"
        }
      ],
      "name": "addSkill",
      "outputs": [],
      "stateMutability": "nonpayable",
      "type": "function"
    },
    {
      "inputs": [
        {
          "internalType": "address",
          "name": "_user",
          "type": "address"
        },
        {
          "internalType": "uint256",
          "name": "_index",
          "type": "uint256"
        }
      ],
      "name": "verifySkill",
      "outputs": [],
      "stateMutability": "nonpayable",
      "type": "function"
    },
    {
      "inputs": [
        {
          "internalType": "address",
          "name": "_user",
          "type": "address"
        }
      ],
      "name": "getSkills",
      "outputs": [
        {
          "components": [
            {
              "internalType": "string",
              "name": "name",
              "type": "string"
            },
            {
              "internalType": "string",
              "name": "description",
              "type": "string"
            },
            {
              "internalType": "bool",
              "name": "verified",
              "type": "bool"
            },
            {
              "internalType": "address",
              "name": "verifier",
              "type": "address"
            },
            {
              "internalType": "string",
              "name": "hash",
              "type": "string"
            }
          ],
          "internalType": "struct SkillCertification.Skill[]",
          "name": "",
          "type": "tuple[]"
        }
      ],
      "stateMutability": "view",
      "type": "function",
      "constant": true
    },
    {
      "inputs": [
        {
          "internalType": "address",
          "name": "_user",
          "type": "address"
        },
        {
          "internalType": "uint256",
          "name": "_index",
          "type": "uint256"
        }
      ],
      "name": "isSkillVerified",
      "outputs": [
        {
          "internalType": "bool",
          "name": "verified",
          "type": "bool"
        },
        {
          "internalType": "string",
          "name": "name",
          "type": "string"
        },
        {
          "internalType": "address",
          "name": "verifier",
          "type": "address"
        }
      ],
      "stateMutability": "view",
      "type": "function",
      "constant": true
    },
    {
      "inputs": [
        {
          "internalType": "string",
          "name": "_hash",
          "type": "string"
        }
      ],
      "name": "isGenuine",
      "outputs": [
        {
          "internalType": "bool",
          "name": "exists",
          "type": "bool"
        },
        {
          "internalType": "string",
          "name": "name",
          "type": "string"
        },
        {
          "internalType": "string",
          "name": "description",
          "type": "string"
        },
        {
          "internalType": "address",
          "name": "owner",
          "type": "address"
        },
        {
          "internalType": "bool",
          "name": "verified",
          "type": "bool"
        }
      ],
      "stateMutability": "view",
      "type": "function",
      "constant": true
    }
  ],
  "bytecode": "0x608060405234801561001057600080fd5b50611d2b806100206000396000f3fe608060405234801561001057600080fd5b50600436106100575760003560e01c806324eec41a1461005c578063566ce61514610078578063a41a24c7146100aa578063cffd7495146100c6578063e63a06d5146100fa575b600080fd5b610076600480360381019061007191906114db565b61012a565b005b610092600480360381019061008d919061145e565b6103f1565b6040516100a1939291906118d7565b60405180910390f35b6100c460048036038101906100bf919061145e565b610751565b005b6100e060048036038101906100db919061149a565b610ae9565b6040516100f1959493929190611915565b60405180910390f35b610114600480360381019061010f9190611435565b61103c565b60405161012191906118b5565b60405180910390f35b600073ffffffffffffffffffffffffffffffffffffffff16600182604051610152919061189e565b908152602001604051809103902060009054906101000a900473ffffffffffffffffffffffffffffffffffffffff1673ffffffffffffffffffffffffffffffffffffffff16146101d7576040517f08c379a00000000000000000000000000000000000000000000000000000000081526004016101ce90611a1d565b60405180910390fd5b6000803373ffffffffffffffffffffffffffffffffffffffff1673ffffffffffffffffffffffffffffffffffffffff1681526020019081526020016000206040518060a00160405280858152602001848152602001600015158152602001600073ffffffffffffffffffffffffffffffffffffffff168152602001838152509080600181540180825580915050600190039060005260206000209060040201600090919091909150600082015181600001908051906020019061029b929190611300565b5060208201518160010190805190602001906102b8929190611300565b5060408201518160020160006101000a81548160ff02191690831515021790555060608201518160020160016101000a81548173ffffffffffffffffffffffffffffffffffffffff021916908373ffffffffffffffffffffffffffffffffffffffff160217905550608082015181600301908051906020019061033c929190611300565b50505033600182604051610350919061189e565b908152602001604051809103902060006101000a81548173ffffffffffffffffffffffffffffffffffffffff021916908373ffffffffffffffffffffffffffffffffffffffff1602179055503373ffffffffffffffffffffffffffffffffffffffff167f9fe4cea04eaa70e43827b044a6ed1a710fae29d69f29b3a24079476c6b1b497484836040516103e4929190611976565b60405180910390a2505050565b6000606060008060008673ffffffffffffffffffffffffffffffffffffffff1673ffffffffffffffffffffffffffffffffffffffff16815260200190815260200160002080549050841061047a576040517f08c379a0000000000000000000000000000000000000000000000000000000008152600401610471906119dd565b60405180910390fd5b60008060008773ffffffffffffffffffffffffffffffffffffffff1673ffffffffffffffffffffffffffffffffffffffff16815260200190815260200160002085815481106104f2577f4e487b7100000000000000000000000000000000000000000000000000000000600052603260045260246000fd5b90600052602060002090600402016040518060a001604052908160008201805461051b90611bae565b80601f016020809104026020016040519081016040528092919081815260200182805461054790611bae565b80156105945780601f1061056957610100808354040283529160200191610594565b820191906000526020600020905b81548152906001019060200180831161057757829003601f168201915b505050505081526020016001820180546105ad90611bae565b80601f01602080910402602001604051908101604052809291908181526020018280546105d990611bae565b80156106265780601f106105fb57610100808354040283529160200191610626565b820191906000526020600020905b81548152906001019060200180831161060957829003601f168201915b505050505081526020016002820160009054906101000a900460ff161515151581526020016002820160019054906101000a900473ffffffffffffffffffffffffffffffffffffffff1673ffffffffffffffffffffffffffffffffffffffff1673ffffffffffffffffffffffffffffffffffffffff1681526020016003820180546106b090611bae565b80601f01602080910402602001604051908101604052809291908181526020018280546106dc90611bae565b80156107295780601f106106fe57610100808354040283529160200191610729565b820191906000526020600020905b81548152906001019060200180831161070c57829003601f168201915b5050505050815250509050806040015181600001518260600151935093509350509250925092565b6000808373ffffffffffffffffffffffffffffffffffffffff1673ffffffffffffffffffffffffffffffffffffffff1681526020019081526020016000208054905081106107d4576040517f08c379a00000000000000000000000000000000000000000000000000000000081526004016107cb906119dd565b60405180910390fd5b6000808373ffffffffffffffffffffffffffffffffffffffff1673ffffffffffffffffffffffffffffffffffffffff168152602001908152602001600020818154811061084a577f4e487b7100000000000000000000000000000000000000000000000000000000600052603260045260246000fd5b906000526020600020906004020160020160009054906101000a900460ff16156108a9576040517f08c379a00000000000000000000000000000000000000000000000000000000081526004016108a0906119fd565b60405180910390fd5b60016000808473ffffffffffffffffffffffffffffffffffffffff1673ffffffffffffffffffffffffffffffffffffffff1681526020019081526020016000208281548110610921577f4e487b7100000000000000000000000000000000000000000000000000000000600052603260045260246000fd5b906000526020600020906004020160020160006101000a81548160ff021916908315150217905550336000808473ffffffffffffffffffffffffffffffffffffffff1673ffffffffffffffffffffffffffffffffffffffff16815260200190815260200160002082815481106109c0577f4e487b7100000000000000000000000000000000000000000000000000000000600052603260045260246000fd5b906000526020600020906004020160020160016101000a81548173ffffffffffffffffffffffffffffffffffffffff021916908373ffffffffffffffffffffffffffffffffffffffff1602179055508173ffffffffffffffffffffffffffffffffffffffff167f4e9a93dc85c66ebb64671f4ce09853f7db3910945803ca57263641de1e52813a6000808573ffffffffffffffffffffffffffffffffffffffff1673ffffffffffffffffffffffffffffffffffffffff1681526020019081526020016000208381548110610abd577f4e487b7100000000000000000000000000000000000000000000000000000000600052603260045260246000fd5b906000526020600020906004020160000133604051610add9291906119ad565b60405180910390a25050565b60006060806000806000600187604051610b03919061189e565b908152602001604051809103902060009054906101000a900473ffffffffffffffffffffffffffffffffffffffff169050600073ffffffffffffffffffffffffffffffffffffffff168173ffffffffffffffffffffffffffffffffffffffff161415610ba25760008060006040518060200160405280600081525091906040518060200160405280600081525091909550955095509550955050611033565b60008060008373ffffffffffffffffffffffffffffffffffffffff1673ffffffffffffffffffffffffffffffffffffffff168152602001908152602001600020805480602002602001604051908101604052809291908181526020016000905b82821015610e5b57838290600052602060002090600402016040518060a0016040529081600082018054610c3590611bae565b80601f0160208091040260200160405190810160405280929190818152602001828054610c6190611bae565b8015610cae5780601f10610c8357610100808354040283529160200191610cae565b820191906000526020600020905b815481529060010190602001808311610c9157829003601f168201915b50505050508152602001600182018054610cc790611bae565b80601f0160208091040260200160405190810160405280929190818152602001828054610cf390611bae565b8015610d405780601f10610d1557610100808354040283529160200191610d40565b820191906000526020600020905b815481529060010190602001808311610d2357829003601f168201915b505050505081526020016002820160009054906101000a900460ff161515151581526020016002820160019054906101000a900473ffffffffffffffffffffffffffffffffffffffff1673ffffffffffffffffffffffffffffffffffffffff1673ffffffffffffffffffffffffffffffffffffffff168152602001600382018054610dca90611bae565b80601f0160208091040260200160405190810160405280929190818152602001828054610df690611bae565b8015610e435780601f10610e1857610100808354040283529160200191610e43565b820191906000526020600020905b815481529060010190602001808311610e2657829003601f168201915b50505050508152505081526020019060010190610c02565b50505050905060005b8151811015610ffc5788604051602001610e7e919061189e565b60405160208183030381529060405280519060200120828281518110610ecd577f4e487b7100000000000000000000000000000000000000000000000000000000600052603260045260246000fd5b602002602001015160800151604051602001610ee9919061189e565b604051602081830303815290604052805190602001201415610fe9576001828281518110610f40577f4e487b7100000000000000000000000000000000000000000000000000000000600052603260045260246000fd5b602002602001015160000151838381518110610f85577f4e487b7100000000000000000000000000000000000000000000000000000000600052603260045260246000fd5b60200260200101516020015185858581518110610fcb577f4e487b7100000000000000000000000000000000000000000000000000000000600052603260045260246000fd5b60200260200101516040015197509750975097509750505050611033565b8080610ff490611be0565b915050610e64565b5060008060006040518060200160405280600081525091906040518060200160405280600081525091909650965096509650965050505b91939590929450565b60606000808373ffffffffffffffffffffffffffffffffffffffff1673ffffffffffffffffffffffffffffffffffffffff168152602001908152602001600020805480602002602001604051908101604052809291908181526020016000905b828210156112f557838290600052602060002090600402016040518060a00160405290816000820180546110cf90611bae565b80601f01602080910402602001604051908101604052809291908181526020018280546110fb90611bae565b80156111485780601f1061111d57610100808354040283529160200191611148565b820191906000526020600020905b81548152906001019060200180831161112b57829003601f168201915b5050505050815260200160018201805461116190611bae565b80601f016020809104026020016040519081016040528092919081815260200182805461118d90611bae565b80156111da5780601f106111af576101008083540402835291602001916111da565b820191906000526020600020905b8154815290600101906020018083116111bd57829003601f168201915b505050505081526020016002820160009054906101000a900460ff161515151581526020016002820160019054906101000a900473ffffffffffffffffffffffffffffffffffffffff1673ffffffffffffffffffffffffffffffffffffffff1673ffffffffffffffffffffffffffffffffffffffff16815260200160038201805461126490611bae565b80601f016020809104026020016040519081016040528092919081815260200182805461129090611bae565b80156112dd5780601f106112b2576101008083540402835291602001916112dd565b820191906000526020600020905b8154815290600101906020018083116112c057829003601f168201915b5050505050815250508152602001906001019061109c565b505050509050919050565b82805461130c90611bae565b90600052602060002090601f01602090048101928261132e5760008555611375565b82601f1061134757805160ff1916838001178555611375565b82800160010185558215611375579182015b82811115611374578251825591602001919060010190611359565b5b5090506113829190611386565b5090565b5b8082111561139f576000816000905550600101611387565b5090565b60006113b66113b184611a6e565b611a3d565b9050828152602081018484840111156113ce57600080fd5b6113d9848285611b6c565b509392505050565b6000813590506113f081611cc7565b92915050565b600082601f83011261140757600080fd5b81356114178482602086016113a3565b91505092915050565b60008135905061142f81611cde565b92915050565b60006020828403121561144757600080fd5b6000611455848285016113e1565b91505092915050565b6000806040838503121561147157600080fd5b600061147f858286016113e1565b925050602061149085828601611420565b9150509250929050565b6000602082840312156114ac57600080fd5b600082013567ffffffffffffffff8111156114c657600080fd5b6114d2848285016113f6565b91505092915050565b6000806000606084860312156114f057600080fd5b600084013567ffffffffffffffff81111561150a57600080fd5b611516868287016113f6565b935050602084013567ffffffffffffffff81111561153357600080fd5b61153f868287016113f6565b925050604084013567ffffffffffffffff81111561155c57600080fd5b611568868287016113f6565b9150509250925092565b600061157e838361181a565b905092915050565b61158f81611b24565b82525050565b61159e81611b24565b82525050565b60006115af82611ac3565b6115b98185611ae6565b9350836020820285016115cb85611a9e565b8060005b8581101561160757848403895281516115e88582611572565b94506115f383611ad9565b925060208a019950506001810190506115cf565b50829750879550505050505092915050565b61162281611b36565b82525050565b61163181611b36565b82525050565b600061164282611ace565b61164c8185611af7565b935061165c818560208601611b7b565b61166581611cb6565b840191505092915050565b600061167b82611ace565b6116858185611b08565b9350611695818560208601611b7b565b61169e81611cb6565b840191505092915050565b60006116b482611ace565b6116be8185611b19565b93506116ce818560208601611b7b565b80840191505092915050565b600081546116e781611bae565b6116f18186611b08565b9450600182166000811461170c576001811461171e57611751565b60ff1983168652602086019350611751565b61172785611aae565b60005b838110156117495781548189015260018201915060208101905061172a565b808801955050505b50505092915050565b6000611767601383611b08565b91507f496e76616c696420736b696c6c20696e646578000000000000000000000000006000830152602082019050919050565b60006117a7601083611b08565b91507f416c7265616479207665726966696564000000000000000000000000000000006000830152602082019050919050565b60006117e7601183611b08565b91507f4861736820616c726561647920757365640000000000000000000000000000006000830152602082019050919050565b600060a08301600083015184820360008601526118378282611637565b915050602083015184820360208601526118518282611637565b91505060408301516118666040860182611619565b5060608301516118796060860182611586565b50608083015184820360808601526118918282611637565b9150508091505092915050565b60006118aa82846116a9565b915081905092915050565b600060208201905081810360008301526118cf81846115a4565b905092915050565b60006060820190506118ec6000830186611628565b81810360208301526118fe8185611670565b905061190d6040830184611595565b949350505050565b600060a08201905061192a6000830188611628565b818103602083015261193c8187611670565b905081810360408301526119508186611670565b905061195f6060830185611595565b61196c6080830184611628565b9695505050505050565b600060408201905081810360008301526119908185611670565b905081810360208301526119a48184611670565b90509392505050565b600060408201905081810360008301526119c781856116da565b90506119d66020830184611595565b9392505050565b600060208201905081810360008301526119f68161175a565b9050919050565b60006020820190508181036000830152611a168161179a565b9050919050565b60006020820190508181036000830152611a36816117da565b9050919050565b6000604051905081810181811067ffffffffffffffff82111715611a6457611a63611c87565b5b8060405250919050565b600067ffffffffffffffff821115611a8957611a88611c87565b5b601f19601f8301169050602081019050919050565b6000819050602082019050919050565b60008190508160005260206000209050919050565b600081519050919050565b600081519050919050565b6000602082019050919050565b600082825260208201905092915050565b600082825260208201905092915050565b600082825260208201905092915050565b600081905092915050565b6000611b2f82611b42565b9050919050565b60008115159050919050565b600073ffffffffffffffffffffffffffffffffffffffff82169050919050565b6000819050919050565b82818337600083830152505050565b60005b83811015611b99578082015181840152602081019050611b7e565b83811115611ba8576000848401525b50505050565b60006002820490506001821680611bc657607f821691505b60208210811415611bda57611bd9611c58565b5b50919050565b6000611beb82611b62565b91507fffffffffffffffffffffffffffffffffffffffffffffffffffffffffffffffff821415611c1e57611c1d611c29565b5b600182019050919050565b7f4e487b7100000000000000000000000000000000000000000000000000000000600052601160045260246000fd5b7f4e487b7100000000000000000000000000000000000000000000000000000000600052602260045260246000fd5b7f4e487b7100000000000000000000000000000000000000000000000000000000600052604160045260246000fd5b6000601f19601f8301169050919050565b611cd081611b24565b8114611cdb57600080fd5b50565b611ce781611b62565b8114611cf257600080fd5b5056fea2646970667358221220eb354d3bbf2bace965008631a3935e34d70b2c2de423849f2543cb999719d6d764736f6c63430008000033",
  "immutableReferences": {},
  "source": "// SPDX-License-Identifier: MIT\r\npragma solidity ^0.8.0;\r\n\r\ncontract SkillCertification {\r\n    struct Skill {\r\n        string name;        // Skill or certificate name\r\n        string description; // Extra description\r\n        bool verified;      // If verified\r\n        address verifier;   // Who verified it\r\n        string hash;        // Certificate/IPFS hash\r\n    }\r\n\r\n    mapping(address => Skill[]) private userSkills;\r\n    mapping(string => address) private hashToOwner; // Track who owns a hash\r\n\r\n    event SkillAdded(address indexed user, string skillName, string hash);\r\n    event SkillVerified(address indexed user, string skillName, address verifier);\r\n\r\n    // Add a skill with description + certificate hash\r\n    function addSkill(string memory _name, string memory _desc, string memory _hash) external {\r\n        require(hashToOwner[_hash] == address(0), \"Hash already used\"); // prevent duplicates\r\n\r\n        userSkills[msg.sender].push(Skill({\r\n            name: _name,\r\n            description: _desc,\r\n            verified: false,\r\n            verifier: address(0),\r\n            hash: _hash\r\n        }));\r\n\r\n        hashToOwner[_hash] = msg.sender;\r\n\r\n        emit SkillAdded(msg.sender, _name, _hash);\r\n    }\r\n\r\n    // Verify a skill by index\r\n    function verifySkill(address _user, uint256 _index) external {\r\n        require(_index < userSkills[_user].length, \"Invalid skill index\");\r\n        require(!userSkills[_user][_index].verified, \"Already verified\");\r\n\r\n        userSkills[_user][_index].verified = true;\r\n        userSkills[_user][_index].verifier = msg.sender;\r\n\r\n        emit SkillVerified(_user, userSkills[_user][_index].name, msg.sender);\r\n    }\r\n\r\n    // Get all skills of a user\r\n    function getSkills(address _user) external view returns (Skill[] memory) {\r\n        return userSkills[_user];\r\n    }\r\n\r\n    // Check if a specific skill is verified\r\n    function isSkillVerified(address _user, uint256 _index) external view returns (bool verified, string memory name, address verifier) {\r\n        require(_index < userSkills[_user].length, \"Invalid skill index\");\r\n        Skill memory skill = userSkills[_user][_index];\r\n        return (skill.verified, skill.name, skill.verifier);\r\n    }\r\n\r\n    //  Verify by certificate hash (IPFS CID)\r\n    function isGenuine(string memory _hash) external view returns (\r\n        bool exists,\r\n        string memory name,\r\n        string memory description,\r\n        address owner,\r\n        bool verified\r\n    ) {\r\n        address skillOwner = hashToOwner[_hash];\r\n        if (skillOwner == address(0)) {\r\n            return (false, \"\", \"\", address(0), false); // not found\r\n        }\r\n\r\n        Skill[] memory skills = userSkills[skillOwner];\r\n        for (uint256 i = 0; i < skills.length; i++) {\r\n            if (keccak256(abi.encodePacked(skills[i].hash)) == keccak256(abi.encodePacked(_hash))) {\r\n                return (true, skills[i].name, skills[i].description, skillOwner, skills[i].verified);\r\n            }\r\n        }\r\n\r\n        return (false, \"\", \"\", address(0), false);\r\n    }\r\n}\r\n",
  "sourcePath": "C:\\Users\\danish\\OneDrive\\Desktop\\Web Development\\Projects\\Blockchain-Skill-Verifier\\contracts\\SkillCertification.sol",
  "compiler": {
    "name": "solc",
    "version": "0.8.0+commit.c7dfd78e.Emscripten.clang"
  },
  "schemaVersion": "3.4.16",
  "updatedAt": "2025-09-11T15:03:31.374Z",
  "networkType": "ethereum",
  "devdoc": {
    "kind": "dev",
    "methods": {},
    "version": 1
  },
  "userdoc": {
    "kind": "user",
    "methods": {},
    "version": 1
  }
}